{
  "contractName": "VotingPlatform",
  "abi": [
    {
      "inputs": [
        {
          "internalType": "uint256",
          "name": "",
          "type": "uint256"
        }
      ],
      "name": "topics",
      "outputs": [
        {
          "internalType": "string",
          "name": "name",
          "type": "string"
        },
        {
          "internalType": "string",
          "name": "description",
          "type": "string"
        },
        {
          "internalType": "uint256",
          "name": "expiryTime",
          "type": "uint256"
        }
      ],
      "stateMutability": "view",
      "type": "function",
      "constant": true
    },
    {
      "inputs": [
        {
          "internalType": "uint256",
          "name": "id",
          "type": "uint256"
        },
        {
          "internalType": "string",
          "name": "name",
          "type": "string"
        },
        {
          "internalType": "string",
          "name": "description",
          "type": "string"
        },
        {
          "internalType": "uint256",
          "name": "expiryTime",
          "type": "uint256"
        }
      ],
      "name": "createTopic",
      "outputs": [],
      "stateMutability": "nonpayable",
      "type": "function"
    },
    {
      "inputs": [
        {
          "internalType": "uint256",
          "name": "id",
          "type": "uint256"
        },
        {
          "internalType": "string",
          "name": "option",
          "type": "string"
        }
      ],
      "name": "addOption",
      "outputs": [],
      "stateMutability": "nonpayable",
      "type": "function"
    },
    {
      "inputs": [
        {
          "internalType": "uint256",
          "name": "id",
          "type": "uint256"
        }
      ],
      "name": "register",
      "outputs": [],
      "stateMutability": "nonpayable",
      "type": "function"
    },
    {
      "inputs": [
        {
          "internalType": "uint256",
          "name": "id",
          "type": "uint256"
        },
        {
          "internalType": "address",
          "name": "voterAddress",
          "type": "address"
        }
      ],
      "name": "approveVoter",
      "outputs": [],
      "stateMutability": "nonpayable",
      "type": "function"
    },
    {
      "inputs": [
        {
          "internalType": "uint256",
          "name": "id",
          "type": "uint256"
        },
        {
          "internalType": "address",
          "name": "voterAddress",
          "type": "address"
        }
      ],
      "name": "rejectVoter",
      "outputs": [],
      "stateMutability": "nonpayable",
      "type": "function"
    },
    {
      "inputs": [
        {
          "internalType": "uint256",
          "name": "id",
          "type": "uint256"
        },
        {
          "internalType": "string",
          "name": "option",
          "type": "string"
        }
      ],
      "name": "vote",
      "outputs": [],
      "stateMutability": "nonpayable",
      "type": "function"
    },
    {
      "inputs": [
        {
          "internalType": "uint256",
          "name": "id",
          "type": "uint256"
        },
        {
          "internalType": "string",
          "name": "option",
          "type": "string"
        }
      ],
      "name": "getVoteCount",
      "outputs": [
        {
          "internalType": "uint256",
          "name": "",
          "type": "uint256"
        }
      ],
      "stateMutability": "view",
      "type": "function",
      "constant": true
    }
  ],
  "bytecode": "0x608060405234801561001057600080fd5b50611540806100206000396000f3fe608060405234801561001057600080fd5b50600436106100885760003560e01c8063dd61a65d1161005b578063dd61a65d14610113578063ea57d5d414610143578063f207564e1461015f578063f87278701461017b57610088565b806318d9adab1461008d57806324108475146100bf57806392f49743146100db578063d3ba3c8b146100f7575b600080fd5b6100a760048036038101906100a2919061091f565b610197565b6040516100b6939291906109eb565b60405180910390f35b6100d960048036038101906100d49190610b65565b6102d1565b005b6100f560048036038101906100f09190610c1f565b6104eb565b005b610111600480360381019061010c9190610c5f565b6105ba565b005b61012d60048036038101906101289190610b65565b61065c565b60405161013a9190610cfe565b60405180910390f35b61015d60048036038101906101589190610b65565b6106e4565b005b6101796004803603810190610174919061091f565b610736565b005b61019560048036038101906101909190610c1f565b610805565b005b60006020528060005260406000206000915090508060000180546101ba90610d48565b80601f01602080910402602001604051908101604052809291908181526020018280546101e690610d48565b80156102335780601f1061020857610100808354040283529160200191610233565b820191906000526020600020905b81548152906001019060200180831161021657829003601f168201915b50505050509080600101805461024890610d48565b80601f016020809104026020016040519081016040528092919081815260200182805461027490610d48565b80156102c15780601f10610296576101008083540402835291602001916102c1565b820191906000526020600020905b8154815290600101906020018083116102a457829003601f168201915b5050505050908060020154905083565b6000806000848152602001908152602001600020905060008160040160003373ffffffffffffffffffffffffffffffffffffffff1673ffffffffffffffffffffffffffffffffffffffff16815260200190815260200160002090508060000160009054906101000a900460ff16801561035857508060000160019054906101000a900460ff165b610397576040517f08c379a000000000000000000000000000000000000000000000000000000000815260040161038e90610dc5565b60405180910390fd5b816002015442106103dd576040517f08c379a00000000000000000000000000000000000000000000000000000000081526004016103d490610e31565b60405180910390fd5b60008160010180546103ee90610d48565b905014610430576040517f08c379a000000000000000000000000000000000000000000000000000000000815260040161042790610e9d565b60405180910390fd5b60005b82600501805490508110156104e45783805190602001208360050182815481106104605761045f610ebd565b5b906000526020600020016040516104779190610f8f565b6040518091039020036104d157838260010190816104959190611152565b5082600301846040516104a89190611260565b908152602001604051809103902060008154809291906104c7906112a6565b91905055506104e4565b80806104dc906112a6565b915050610433565b5050505050565b6000806000848152602001908152602001600020905060008160040160008473ffffffffffffffffffffffffffffffffffffffff1673ffffffffffffffffffffffffffffffffffffffff16815260200190815260200160002090508060000160009054906101000a900460ff16610597576040517f08c379a000000000000000000000000000000000000000000000000000000000815260040161058e9061133a565b60405180910390fd5b60008160000160006101000a81548160ff02191690831515021790555050505050565b60008060008681526020019081526020016000206002015414610612576040517f08c379a0000000000000000000000000000000000000000000000000000000008152600401610609906113a6565b60405180910390fd5b60008060008681526020019081526020016000209050838160000190816106399190611152565b508281600101908161064b9190611152565b508181600201819055505050505050565b600080600080858152602001908152602001600020905080600201544210156106ba576040517f08c379a00000000000000000000000000000000000000000000000000000000081526004016106b190611412565b60405180910390fd5b80600301836040516106cc9190611260565b90815260200160405180910390205491505092915050565b6000806000848152602001908152602001600020905080600501829080600181540180825580915050600190039060005260206000200160009091909190915090816107309190611152565b50505050565b6000806000838152602001908152602001600020905060008160040160003373ffffffffffffffffffffffffffffffffffffffff1673ffffffffffffffffffffffffffffffffffffffff16815260200190815260200160002090508060000160009054906101000a900460ff16156107e3576040517f08c379a00000000000000000000000000000000000000000000000000000000081526004016107da9061147e565b60405180910390fd5b60018160000160006101000a81548160ff021916908315150217905550505050565b6000806000848152602001908152602001600020905060008160040160008473ffffffffffffffffffffffffffffffffffffffff1673ffffffffffffffffffffffffffffffffffffffff16815260200190815260200160002090508060000160019054906101000a900460ff16156108b2576040517f08c379a00000000000000000000000000000000000000000000000000000000081526004016108a9906114ea565b60405180910390fd5b60018160000160016101000a81548160ff02191690831515021790555050505050565b6000604051905090565b600080fd5b600080fd5b6000819050919050565b6108fc816108e9565b811461090757600080fd5b50565b600081359050610919816108f3565b92915050565b600060208284031215610935576109346108df565b5b60006109438482850161090a565b91505092915050565b600081519050919050565b600082825260208201905092915050565b60005b8381101561098657808201518184015260208101905061096b565b60008484015250505050565b6000601f19601f8301169050919050565b60006109ae8261094c565b6109b88185610957565b93506109c8818560208601610968565b6109d181610992565b840191505092915050565b6109e5816108e9565b82525050565b60006060820190508181036000830152610a0581866109a3565b90508181036020830152610a1981856109a3565b9050610a2860408301846109dc565b949350505050565b600080fd5b600080fd5b7f4e487b7100000000000000000000000000000000000000000000000000000000600052604160045260246000fd5b610a7282610992565b810181811067ffffffffffffffff82111715610a9157610a90610a3a565b5b80604052505050565b6000610aa46108d5565b9050610ab08282610a69565b919050565b600067ffffffffffffffff821115610ad057610acf610a3a565b5b610ad982610992565b9050602081019050919050565b82818337600083830152505050565b6000610b08610b0384610ab5565b610a9a565b905082815260208101848484011115610b2457610b23610a35565b5b610b2f848285610ae6565b509392505050565b600082601f830112610b4c57610b4b610a30565b5b8135610b5c848260208601610af5565b91505092915050565b60008060408385031215610b7c57610b7b6108df565b5b6000610b8a8582860161090a565b925050602083013567ffffffffffffffff811115610bab57610baa6108e4565b5b610bb785828601610b37565b9150509250929050565b600073ffffffffffffffffffffffffffffffffffffffff82169050919050565b6000610bec82610bc1565b9050919050565b610bfc81610be1565b8114610c0757600080fd5b50565b600081359050610c1981610bf3565b92915050565b60008060408385031215610c3657610c356108df565b5b6000610c448582860161090a565b9250506020610c5585828601610c0a565b9150509250929050565b60008060008060808587031215610c7957610c786108df565b5b6000610c878782880161090a565b945050602085013567ffffffffffffffff811115610ca857610ca76108e4565b5b610cb487828801610b37565b935050604085013567ffffffffffffffff811115610cd557610cd46108e4565b5b610ce187828801610b37565b9250506060610cf28782880161090a565b91505092959194509250565b6000602082019050610d1360008301846109dc565b92915050565b7f4e487b7100000000000000000000000000000000000000000000000000000000600052602260045260246000fd5b60006002820490506001821680610d6057607f821691505b602082108103610d7357610d72610d19565b5b50919050565b7f4e6f7420616c6c6f77656420746f20766f74652e000000000000000000000000600082015250565b6000610daf601483610957565b9150610dba82610d79565b602082019050919050565b60006020820190508181036000830152610dde81610da2565b9050919050565b7f566f74696e672068617320657870697265642e00000000000000000000000000600082015250565b6000610e1b601383610957565b9150610e2682610de5565b602082019050919050565b60006020820190508181036000830152610e4a81610e0e565b9050919050565b7f416c726561647920766f7465642e000000000000000000000000000000000000600082015250565b6000610e87600e83610957565b9150610e9282610e51565b602082019050919050565b60006020820190508181036000830152610eb681610e7a565b9050919050565b7f4e487b7100000000000000000000000000000000000000000000000000000000600052603260045260246000fd5b600081905092915050565b60008190508160005260206000209050919050565b60008154610f1981610d48565b610f238186610eec565b94506001821660008114610f3e5760018114610f5357610f86565b60ff1983168652811515820286019350610f86565b610f5c85610ef7565b60005b83811015610f7e57815481890152600182019150602081019050610f5f565b838801955050505b50505092915050565b6000610f9b8284610f0c565b915081905092915050565b60008190508160005260206000209050919050565b60006020601f8301049050919050565b600082821b905092915050565b6000600883026110087fffffffffffffffffffffffffffffffffffffffffffffffffffffffffffffffff82610fcb565b6110128683610fcb565b95508019841693508086168417925050509392505050565b6000819050919050565b600061104f61104a611045846108e9565b61102a565b6108e9565b9050919050565b6000819050919050565b61106983611034565b61107d61107582611056565b848454610fd8565b825550505050565b600090565b611092611085565b61109d818484611060565b505050565b5b818110156110c1576110b660008261108a565b6001810190506110a3565b5050565b601f821115611106576110d781610fa6565b6110e084610fbb565b810160208510156110ef578190505b6111036110fb85610fbb565b8301826110a2565b50505b505050565b600082821c905092915050565b60006111296000198460080261110b565b1980831691505092915050565b60006111428383611118565b9150826002028217905092915050565b61115b8261094c565b67ffffffffffffffff81111561117457611173610a3a565b5b61117e8254610d48565b6111898282856110c5565b600060209050601f8311600181146111bc57600084156111aa578287015190505b6111b48582611136565b86555061121c565b601f1984166111ca86610fa6565b60005b828110156111f2578489015182556001820191506020850194506020810190506111cd565b8683101561120f578489015161120b601f891682611118565b8355505b6001600288020188555050505b505050505050565b600081905092915050565b600061123a8261094c565b6112448185611224565b9350611254818560208601610968565b80840191505092915050565b600061126c828461122f565b915081905092915050565b7f4e487b7100000000000000000000000000000000000000000000000000000000600052601160045260246000fd5b60006112b1826108e9565b91507fffffffffffffffffffffffffffffffffffffffffffffffffffffffffffffffff82036112e3576112e2611277565b5b600182019050919050565b7f4e6f7420726567697374657265642e0000000000000000000000000000000000600082015250565b6000611324600f83610957565b915061132f826112ee565b602082019050919050565b6000602082019050818103600083015261135381611317565b9050919050565b7f546f70696320616c7265616479206578697374732e0000000000000000000000600082015250565b6000611390601583610957565b915061139b8261135a565b602082019050919050565b600060208201905081810360008301526113bf81611383565b9050919050565b7f566f74696e6720686173206e6f7420657870697265642e000000000000000000600082015250565b60006113fc601783610957565b9150611407826113c6565b602082019050919050565b6000602082019050818103600083015261142b816113ef565b9050919050565b7f416c726561647920726567697374657265642e00000000000000000000000000600082015250565b6000611468601383610957565b915061147382611432565b602082019050919050565b600060208201905081810360008301526114978161145b565b9050919050565b7f416c726561647920616c6c6f7765642e00000000000000000000000000000000600082015250565b60006114d4601083610957565b91506114df8261149e565b602082019050919050565b60006020820190508181036000830152611503816114c7565b905091905056fea2646970667358221220f9a85f743c35e9896bf16723f271a3f3f7406909db59776323731aa9823b31f564736f6c63430008110033",
  "immutableReferences": {},
  "source": "// SPDX-License-Identifier: GPL-3.0\npragma solidity ^0.8.0;\n\ncontract VotingPlatform {\n    struct Voter {\n        bool registered;\n        bool allowed;\n        string votedOption;\n    }\n\n    struct Topic {\n        string name;\n        string description;\n        uint256 expiryTime;\n        mapping(string => uint256) voteCount;\n        mapping(address => Voter) voters;\n        string[] options;\n    }\n\n    mapping(uint256 => Topic) public topics;\n\n    function createTopic(\n        uint256 id,\n        string memory name,\n        string memory description,\n        uint256 expiryTime\n    ) public {\n        require(topics[id].expiryTime == 0, \"Topic already exists.\");\n        Topic storage topic = topics[id];\n        topic.name = name;\n        topic.description = description;\n        topic.expiryTime = expiryTime;\n    }\n\n    function addOption(uint256 id, string memory option) public {\n        Topic storage topic = topics[id];\n        topic.options.push(option);\n    }\n\n    function register(uint256 id) public {\n        Topic storage topic = topics[id];\n        Voter storage voter = topic.voters[msg.sender];\n        require(!voter.registered, \"Already registered.\");\n        voter.registered = true;\n    }\n\n    function approveVoter(uint256 id, address voterAddress) public {\n        Topic storage topic = topics[id];\n        Voter storage voter = topic.voters[voterAddress];\n        require(!voter.allowed, \"Already allowed.\");\n        voter.allowed = true;\n    }\n\n    function rejectVoter(uint256 id, address voterAddress) public {\n        Topic storage topic = topics[id];\n        Voter storage voter = topic.voters[voterAddress];\n        require(voter.registered, \"Not registered.\");\n        voter.registered = false;\n    }\n\n    function vote(uint256 id, string memory option) public {\n        Topic storage topic = topics[id];\n        Voter storage voter = topic.voters[msg.sender];\n        require(voter.registered && voter.allowed, \"Not allowed to vote.\");\n        require(block.timestamp < topic.expiryTime, \"Voting has expired.\");\n        require(bytes(voter.votedOption).length == 0, \"Already voted.\");\n        for (uint256 i = 0; i < topic.options.length; i++) {\n            if (\n                keccak256(bytes(topic.options[i])) == keccak256(bytes(option))\n            ) {\n                voter.votedOption = option;\n                topic.voteCount[option]++;\n                break;\n            }\n        }\n    }\n\n    function getVoteCount(uint256 id, string memory option)\n        public\n        view\n        returns (uint256)\n    {\n        Topic storage topic = topics[id];\n        require(block.timestamp >= topic.expiryTime, \"Voting has not expired.\");\n        return topic.voteCount[option];\n    }\n}\n",
  "sourcePath": "/Users/dipanshuraj/Documents/Beyond Imagination/contracts/VotingPlatform.sol",
  "compiler": {
    "name": "solc",
    "version": "0.8.17+commit.8df45f5f.Emscripten.clang"
  },
  "schemaVersion": "3.4.10",
  "updatedAt": "2023-02-13T08:02:02.610Z",
  "networkType": "ethereum",
  "devdoc": {
    "kind": "dev",
    "methods": {},
    "version": 1
  },
  "userdoc": {
    "kind": "user",
    "methods": {},
    "version": 1
  }
}